:020000040800F2
:1000000040080020DD040008390500083905000813
:10001000390500083905000839050008000000000E
:10002000000000000000000000000000390500088A
:1000300039050008000000003905000839050008EE
:100040003905000839050008390500083905000898
:100050003905000839050008390500083905000888
:100060003905000839050008390500083905000878
:100070003905000839050008390500083905000868
:100080003905000839050008390500083905000858
:100090003905000839050008390500083905000848
:1000A0003905000839050008390500083905000838
:1000B0003905000839050008390500083905000828
:1000C0003905000839050008390500083905000818
:1000D00039050008390500083905000889060008B7
:1000E00039050008390500083905000839050008F8
:1000F00039050008390500083905000839050008E8
:1001000039050008390500083905000839050008D7
:1001100039050008390500083905000839050008C7
:1001200039050008390500083905000839050008B7
:1001300039050008390500083905000839050008A7
:100140003905000839050008390500083905000897
:100150003905000839050008390500083905000887
:100160003905000839050008390500083905000877
:100170003905000839050008390500083905000867
:10018000390500083905000880B58AB000AF7860ED
:10019000396000237B6200233B620023FB61002364
:1001A000BB617B681B8A9BB27B627B6A23F44053F2
:1001B0007B623B68DB881A467B6A13437B627B6AFF
:1001C0009AB27B681A827B689B899BB27B627B6A4E
:1001D00023F4B05323F00C037B623B689A883B689E
:1001E0001B8913439AB23B685B8913439BB21A463F
:1001F0007B6A13437B627B6A9AB27B689A817B68D5
:100200009B8A9BB27B627B6A23F440737B623B6870
:100210009B891A467B6A13437B627B6A9AB27B682E
:100220009A8207F10803184600F0A6FE7B68304A60
:10023000934203D07B682F4A934202D17B693B6291
:1002400001E03B693B627B689B899BB21BB2002B40
:100250000CDA3A6A13469B0013449A001A443B682E
:100260001B685B00B2FBF3F3FB610BE03A6A1346D9
:100270009B0013449A001A443B681B689B00B2FB26
:10028000F3F3FB61FB691C4AA2FB03235B091B011F
:100290007B627B6A1B09642202FB03F3FA69D31AAF
:1002A000BB617B689B899BB21BB2002B0CDABB69DC
:1002B000DB003233104AA2FB03235B0903F0070380
:1002C0007A6A13437B620BE0BB691B0132330A4A33
:1002D000A2FB03235B0903F00F037A6A13437B62DB
:1002E0007B6A9AB27B681A8100BF2837BD4680BD01
:1002F00000100140001401401F85EB5180B483B011
:1003000000AF78600B46FB70FB78002B08D07B6851
:100310009B899BB243F400539AB27B689A8107E0B1
:100320007B689B899BB223F400539AB27B689A81C5
:1003300000BF0C37BD4680BC704700BF80B483B09F
:1003400000AF78600B467B807B88C3F308039AB2CA
:100350007B689A8000BF0C37BD4680BC704700BFE9
:1003600080B487B000AF78600B467B8013467B700B
:1003700000233B610023FB600023BB6000237B6103
:100380007B687B617B88DBB25B09DBB23B617B888E
:1003900003F01F03FB600122FB6802FA03F3BB605A
:1003A0003B69012B03D17B690C337B6109E03B691D
:1003B000022B03D17B6910337B6102E07B6914332C
:1003C0007B617B78002B06D07B697A691168BA68FB
:1003D0000A431A6006E07B697A691168BA68D243F9
:1003E0000A401A6000BF1C37BD4680BC704700BF82
:1003F00080B485B000AF78600B467B800023FB7330
:100400007B681B889AB27B8813409BB2002B02D07A
:100410000123FB7301E00023FB73FB7B18461437B9
:10042000BD4680BC704700BF80B487B000AF786025
:100430000B467B800023FB6000237B610023BB60B5
:100440000023FB747B88DBB25B09DBB2BB607B887B
:1004500003F01F037B6101227B6902FA03F37B61D6
:10046000BB68012B07D17B689B899BB21A467B69CD
:1004700013407B6111E0BB68022B07D17B681B8AAC
:100480009BB21A467B6913407B6106E07B689B8ABE
:100490009BB21A467B6913407B617B881B0A9BB227
:1004A000FB600122FB6802FA03F3FB607B681B8898
:1004B0009BB21A46FB681340FB607B69002B05D09A
:1004C000FB68002B02D00123FB7401E00023FB74C6
:1004D000FB7C18461C37BD4680BC704780B582B097
:1004E00000AF104B7B60104B3B6007E03B681A1D70
:1004F0003A607A68111D796012681A603B680B4A8D
:100500009342F3D30A480B494FF000028842B8BF28
:1005100040F8042BFADB00F08BFA00BF0837BD4629
:1005200080BD00BFCC260008000000201000002085
:10053000100000204000002080B400AFFEE700BFA4
:1005400080B483B000AF0346FB71084997F90730C8
:100550005B09FA7902F01F02012000FA02F241F869
:10056000232000BF0C37BD4680BC704700E100E08F
:1005700080B582B000AF0121082000F0A7FD4FF444
:1005800070433B6001233B710023BB7103237B71EC
:100590000023FB713B461946034800F0D3FD00BF22
:1005A0000837BD4680BD00BF000C024080B586B054
:1005B00000AF0121042000F089FD07220A21214813
:1005C00000F09EFE0023BB750123FB7502233B75E3
:1005D0004FF480633B6102237B7507F110031946DA
:1005E000184800F0AFFD07220B21164800F088FEE6
:1005F00002233B754FF400633B6107F1100319467A
:10060000104800F09FFD01214FF4802000F07CFD98
:100610004FF416533B600023BB800023FB80002374
:100620003B810023BB810C237B813B461946064856
:10063000FFF7AAFD01210448FFF760FE00BF18374D
:10064000BD4680BD000802400048004080B582B031
:1006500000AF012240F225510A48FFF781FE27230F
:100660003B7100237B710023BB710123FB713B1D98
:10067000184600F08DFE2720FFF762FF00BF083705
:10068000BD4680BD0048004080B582B000AF40F25A
:1006900025511148FFF7C8FE0346002B17D000BFB5
:1006A00020210D48FFF7A4FE0346002BF8D00A4B8B
:1006B0009B889BB2DAB2094B1A70084B1B78DBB2ED
:1006C0003B713B1D01221946054801F067FE00BF42
:1006D0000837BD4680BD00BF004800403D000020F7
:1006E0002400002080B582B000AF0346FB7100BF3C
:1006F00080210C48FFF77CFE0346002BF8D0FB79E5
:100700009BB219460748FFF719FE00BF4021054874
:10071000FFF76EFE0346002BF8D000BF0837BD463A
:1007200080BD00BF0048004080B500AF024800F027
:1007300019F800BF80BD00BF7824000880B584B0E0
:1007400000AF786007F108030A221946786801F0C3
:10075000C7FB07F10803184600F004F800BF103784
:10076000BD4680BD80B582B000AF786006E07B6892
:100770005A1C7A601B781846FFF7B4FF7B681B7819
:10078000002BF4D100BF0837BD4680BD80B483B0D4
:1007900000AF01237B600BE07B68013B0A497A686C
:1007A0000A441278D1B2094AD1547B6801337B6084
:1007B000054A7B6813441B78DBB21E2BECD100BFCB
:1007C0000C37BD4680BC704724000020100000207C
:1007D00080B483B000AF01237B6000233B6002E064
:1007E0007B6801337B60124A7B6813441B78DBB261
:1007F0001E2BF5D17B6801337B600BE00C4A7B68D4
:1008000013441B78DBB21A463B6813443B607B6899
:1008100001337B60064A7B6813441B78DBB2032BF1
:10082000ECD13B6818460C37BD4680BC704700BF12
:100830002400002080B483B000AF00237B6000233D
:100840003B600BE00C4A7B6813441B78DBB21A4612
:100850003B6813443B607B6801337B60064A7B68DE
:1008600013441B78DBB2002BECD13B6818460C37E5
:10087000BD4680BC704700BF1000002080B483B02C
:1008800000AF00237B6000237B6007E0074A7B68A2
:10089000134400221A707B6801337B607B68182B3D
:1008A000F4DD00BF0C37BD4680BC7047240000203B
:1008B00080B483B000AF00237B6000237B6007E03F
:1008C000074A7B68134400221A707B6801337B60FF
:1008D0007B680C2BF4DD00BF0C37BD4680BC704735
:1008E0001000002080B582B000AF2A4801F0E8FC7B
:1008F0000346142B07D9FFF717FF2748FFF732FFEE
:10090000FFF7BCFF42E00321224801F0EBFA034667
:10091000002B3AD002211F4801F0E4FA0346002BD5
:1009200025D01E211B4801F0DDFA0346002B1ED006
:10093000FFF72CFFFFF74CFF7860FFF77BFF0246C5
:100940007B689A420BD11548FFF70CFF1448FFF75C
:1009500009FF2120FFF7C6FEFFF790FF16E0FFF723
:10096000E3FE1048FFF7FEFEFFF7A2FF0AE0FFF7E5
:10097000DBFE0D48FFF7F6FE0648FFF7F3FE2120E9
:10098000FFF7B0FEFFF77AFF00E000BF0837BD4673
:1009900080BD00BF240000208024000894240008AB
:1009A00010000020BC240008D824000880B582B0C4
:1009B00000AF0121022000F089FB3B46184600F001
:1009C0004FFC60233B6001233B710023BB71032379
:1009D0007B710123FB713B461946054800F0B2FBD1
:1009E0006021034800F070FC00BF0837BD4680BDA1
:1009F0000004024080B582B000AF0121012000F068
:100A000065FB3B46184600F02BFC02233B600023AD
:100A10003B7103237B710023FB713B46194603485E
:100A200000F090FB00BF0837BD4680BD00000240CB
:100A300090B58BB000AF0121022000F065FB42F2BF
:100A4000CF03BB6044F61E63BB800023BB81002341
:100A5000FB803B1D1946BE4800F0FAFC0121BC4852
:100A600000F09CFD042387F82730BA4B00221A605F
:100A700000233B620023FB6142F2CF03BB61FFF71F
:100A800077FD4FF44041B44800F01EFCFFF78EFDA7
:100A9000FFF7DCFDFFF78AFFFFF7ACFFAF48FFF77A
:100AA00061FEFFF7EBFE0121A94800F05BFD034664
:100AB000002B41D0A74B1B68002B09D14FF40041FC
:100AC000A54800F00FFC4FF48041A34800F00AFC59
:100AD0002021A34800F006FC4021A14800F002FCC0
:100AE00000219B4800F01EFDBB68BB61BB6942F260
:100AF000CF02934207D042F2CF03BB603B1D1946A1
:100B0000934800F0A5FC97F82730012B06D103236A
:100B100087F827309348FFF725FE09E097F827303C
:100B2000022B05D1042387F827308F48FFF71AFEE0
:100B30000121874800F032FD864B1B68012B40F0F5
:100B40008E803B6A894A934202DC3B6A01333B62F6
:100B50000221874800F09EFB0346002B56D1FB691B
:100B60000133FB613B6A834A934278D18248FFF7A5
:100B7000F9FD00233B62F86900F072FE70A3D3E92F
:100B8000002300F0FDFF03460C46184621466EA3E5
:100B9000D3E9002301F050F90346002B2AD097F83F
:100BA0002730042B05D17048FFF7DCFD00233B62A2
:100BB00055E04FF48051684800F086FB0023FB614C
:100BC0006E48FFF7CFFD6E48FFF7CCFD022387F894
:100BD000273000215E4800F0A5FC4021604800F06D
:100BE00081FB20215E4800F06FFB0121584800F096
:100BF00099FC34E04FF48051574800F073FB614892
:100C0000FFF7B0FD6048FFF7ADFD28E03B6A594AA9
:100C1000934224D197F82730032B05D15148FFF791
:100C2000A1FD00233B621AE00021494800F07AFC54
:100C300000233B625548FFF795FD5548FFF792FDAD
:100C4000012387F827302021454800F04BFB402145
:100C5000434800F039FB01213D4800F063FC4FF4AC
:100C600080513D4800F03EFBFFF73CFE49494A48B1
:100C700001F0AAF90346002B4AD10021344800F0C4
:100C800051FC344B00221A6097F82730032B03D114
:100C90003448FFF767FD38E0012387F82730BB6849
:100CA000BB613E48FFF75EFDB869FFF747FD2120B5
:100CB000FFF718FD20212A4800F0ECFA0346012B2B
:100CC00007D04FF40041244800F0E4FA0346012B1A
:100CD00008D14FF40041204800F004FB20212048B7
:100CE00000F000FB4FF480411B4800F0EDFA40217A
:100CF0001B4800F0E9FA2A48FFF734FD2448FFF7C3
:100D000031FD0121124800F00DFCFFF7D1FDCAE6CC
:100D10002449214801F058F90346002B40F09B80FC
:100D200000210B4800F0FEFB0A4B00221A6097F8E6
:100D30002730042B38D10C48FFF714FD88E000BFA2
:100D400000000000006AF840666666666666EE3F70
:100D50000004004020000020000C0240F4240008A1
:100D60000004024004250008182500089F860100A1
:100D700000000240A08601002C2500083C25000848
:100D80005C2500086C2500088C250008A0250008BB
:100D9000B0250008C425000810000020CC2500085C
:100DA000D8250008EC250008022387F82730BB6807
:100DB0007B616148FFF7D6FC7869FFF7BFFC212013
:100DC000FFF790FCB86900F04BFD59A3D3E900236D
:100DD00000F0ACFD03460C461846214601F040F8F1
:100DE0000346BB61BB69BB603B1D1946534800F01D
:100DF0002FFB0121514800F0D1FB4021504800F069
:100E000049FA0346012B07D04FF480414D4800F0CA
:100E100041FA0346012B08D14FF48041494800F0C4
:100E200061FA4021464800F05DFA4FF40041454820
:100E300000F04AFA2021424800F046FA4248FFF703
:100E400091FC4248FFF78EFC01213C4800F06AFB10
:100E5000FFF72EFD27E63E493E4801F0B5F8034670
:100E6000002B10D13C4B01221A604FF44041354811
:100E700000F02AFA3948FFF775FC3948FFF772FC91
:100E8000FFF716FD0FE63749324801F09DF803469B
:100E9000002B42D10021294800F044FB2E4B0022B8
:100EA0001A60264B5B6A3B612F48FFF75BFC386991
:100EB000FFF744FC2120FFF715FC3B69002B0ADDFE
:100EC0003B69BB603B1D19461C4800F0C1FA01217B
:100ED0001A4800F063FBBB68BB612448FFF742FC83
:100EE000B869FFF72BFC2120FFF7FCFB60211448B9
:100EF00000F0EAF94FF40041124800F0F3F94FF422
:100F00008041104800F0EEF91948FFF72BFC194812
:100F1000FFF728FCFFF7CCFCC5E50E4B1B78002B38
:100F20003FF4C1ADFFF700FCFFF7C2FCBBE500BF1B
:100F30009A9999999999F13FCC25000800040040AD
:100F400000040240000C0240F42500085C25000863
:100F500008260008100000202000002010260008AD
:100F6000302600084826000850260008642600089D
:100F7000782600089026000880B489B000AF786019
:100F80000023BB6100237B610023FB6102233B61E3
:100F90000023FB600223BB60484B9B6803F00C03FB
:100FA000BB61BB69042B07D0082B09D0002B3FD1B4
:100FB0007B68434A1A603FE07B68424A1A603BE024
:100FC0003E4B5B6803F480039B0DFB603B4B5B680F
:100FD00003F03F03BB60FB68002B0DD0394ABB68B0
:100FE000B2FBF3F2354B596847F6C0730B409B09CF
:100FF00003FB02F3FB610CE0314ABB68B2FBF3F286
:101000002E4B596847F6C0730B409B0903FB02F354
:10101000FB612A4B5B6803F440331B0C01335B001C
:101020003B61FA693B69B2FBF3F27B681A6003E04B
:101030007B68234A1A6000BF204B9B6803F0F003D3
:10104000BB61BB691B09BB611F4ABB6913441B78A9
:10105000DBB27B617B681A687B69DA407B685A6027
:10106000164B9B6803F4E053BB61BB699B0ABB61F1
:10107000154ABB6913441B78DBB27B617B685A68F5
:101080007B69DA407B689A600C4B9B6803F4604391
:10109000BB61BB695B0BBB610B4ABB6913441B782B
:1010A000DBB27B617B685A687B69DA407B68DA6017
:1010B00000BF2437BD4680BC704700BF00380240E7
:1010C0000024F40000127A000000002080B483B0F5
:1010D00000AF78600B46FB70FB78002B06D0094907
:1010E000084B1A6B7B6813430B6306E00549054BFD
:1010F0001A6B7B68DB4313400B6300BF0C37BD46A4
:1011000080BC70470038024080B483B000AF786084
:101110000B46FB70FB78002B06D00949084B1A6C74
:101120007B6813430B6406E00549054B1A6C7B682A
:10113000DB4313400B6400BF0C37BD4680BC7047D7
:101140000038024080B487B000AF78603960002377
:101150007B6100233B610023FB6000237B6176E021
:1011600001227B6902FA03F33B613B681A683B6921
:101170001340FB60FA683B699A4265D17B681A6844
:101180007B695B00032101FA03F3DB431A407B68B0
:101190001A607B681A683B681B7919467B695B009B
:1011A00001FA03F31A437B681A603B681B79012B31
:1011B00003D03B681B79022B2ED17B689A687B6930
:1011C0005B00032101FA03F3DB431A407B689A605A
:1011D0007B689A683B685B7919467B695B0001FA1A
:1011E00003F31A437B689A607B685A687B699BB2F9
:1011F000012101FA03F3DB431A407B685A607B68E4
:101200005A683B689B7919467B699BB201FA03F3E4
:101210009BB21A437B685A607B68DA687B699BB231
:101220005B00032101FA03F3DB431A407B68DA60B9
:101230007B68DA683B68DB7919467B695B0001FAF9
:1012400003F31A437B68DA607B6901337B617B6956
:101250000F2B85D900BF1C37BD4680BC704700BF2F
:1012600080B483B000AF78607B684FF6FF721A607D
:101270007B6800221A717B6800225A717B68002209
:101280009A717B680022DA7100BF0C37BD4680BCC2
:10129000704700BF80B485B000AF78600B467B809C
:1012A0000023FB737B681A697B881340002B02D0F4
:1012B0000123FB7301E00023FB73FB7B184614370B
:1012C000BD4680BC704700BF80B483B000AF78607B
:1012D0000B467B807B687A881A8300BF0C37BD463B
:1012E00080BC704780B483B000AF78600B467B80D1
:1012F0007B687A885A8300BF0C37BD4680BC704734
:1013000080B485B000AF78600B467B8013467B705D
:101310000023FB600023BB607A787B8803F007031F
:101320009B0002FA03F3FB607B88DB089BB2184644
:101330007B88DB089BB21A467B68083253F8222070
:101340007B8803F007039B000F2101FA03F3DB43C3
:1013500002EA03017B6800F1080243F822107B884F
:10136000DB089BB21A467B68083253F82220FB68E0
:101370001343BB607B88DB089BB21A467B6808324C
:10138000B96843F8221000BF1437BD4680BC7047CF
:1013900080B485B000AF78600023FB730023BB737B
:1013A0000F237B737B68DB78002B38D0264BDB6800
:1013B000DB4303F4E0631B0AFB73FB7BC3F1040311
:1013C000BB737A7BFB7B42FA03F37B737B685B78AE
:1013D0001A46BB7B02FA03F3FB737B689A787B7B2C
:1013E0001340DAB2FB7B1343FB73FB7B1B01FB73E4
:1013F000164A7B681B781344FA7B83F80023134A50
:101400007B681B785B09DBB218467B681B7803F0AE
:101410001F03012101FA03F342F820300FE00B49CA
:101420007B681B785B09DBB218467B681B7803F08E
:101430001F0301229A4000F1200341F8232000BF3E
:101440001437BD4680BC704700ED00E000E100E0CD
:1014500080B485B000AF786039600023FB817B6881
:101460001B88FB817B68284A934213D07B68274AFC
:1014700093420FD07B68B3F1804F0BD07B68244A36
:10148000934207D07B68234A934203D07B68224A69
:10149000934208D1FB8923F07003FB813B685A8893
:1014A000FB891343FB817B681C4A93420CD07B6809
:1014B0001B4A934208D0FB8923F44073FB813B68AD
:1014C0001A89FB891343FB817B68FA891A803B6880
:1014D0005A687B68DA623B681A887B681A857B6881
:1014E000094A934203D07B68084A934204D13B687F
:1014F0009B7A9AB27B681A867B6801229A8200BF27
:101500001437BD4680BC7047000001400004014014
:101510000004004000080040000C004000100040A3
:101520000014004080B483B000AF78600B46FB70BD
:10153000FB78002B08D07B681B889BB243F001032B
:101540009AB27B681A8007E07B681B889BB223F005
:1015500001039AB27B681A8000BF0C37BD4680BC7D
:10156000704700BF80B485B000AF78600B467B80C9
:101570000023FB737B681B8A9AB27B8813409BB263
:10158000002B02D00123FB7301E00023FB73FB7BE4
:1015900018461437BD4680BC704700BF80B483B086
:1015A00000AF78600B467B807B88DB439AB27B6818
:1015B0001A8200BF0C37BD4680BC704781F00041E5
:1015C00002E000BF83F0004330B54FEA41044FEA28
:1015D000430594EA050F08BF90EA020F1FBF54EAC3
:1015E000000C55EA020C7FEA645C7FEA655C00F05F
:1015F000E2804FEA5454D4EB5555B8BF6D420CDD30
:101600002C4480EA020281EA030382EA000083EAB2
:10161000010180EA020281EA0303362D88BF30BD52
:1016200011F0004F4FEA01314FF4801C4CEA1131A8
:1016300002D0404261EB410113F0004F4FEA033307
:101640004CEA133302D0524263EB430394EA050F92
:1016500000F0A780A4F10104D5F1200E0DDB02FA01
:101660000EFC22FA05F2801841F1000103FA0EF295
:10167000801843FA05F359410EE0A5F120050EF15B
:10168000200E012A03FA0EFC28BF4CF0020C43FA8C
:1016900005F3C01851EBE37101F0004507D54FF099
:1016A000000EDCF1000C7EEB00006EEB0101B1F5E9
:1016B000801F1BD3B1F5001F0CD349085FEA30002F
:1016C0004FEA3C0C04F101044FEA445212F5800F3A
:1016D00080F09A80BCF1004F08BF5FEA500C50F1D7
:1016E000000041EB045141EA050130BD5FEA4C0CBA
:1016F000404141EB010111F4801FA4F10104E9D143
:1017000091F0000F04BF01460020B1FA81F308BF39
:101710002033A3F10B03B3F120020CDA0C3208DD05
:1017200002F1140CC2F10C0201FA0CF021FA02F1E0
:101730000CE002F11402D8BFC2F1200C01FA02F150
:1017400020FA0CFCDCBF41EA0C019040E41AA2BF75
:1017500001EB0451294330BD6FEA04041F3C1CDA3D
:101760000C340EDC04F11404C4F1200220FA04F05D
:1017700001FA02F340EA030021FA04F345EA030107
:1017800030BDC4F10C04C4F1200220FA02F001FAC9
:1017900004F340EA0300294630BD21FA04F029464B
:1017A00030BD94F0000F83F4801306BF81F48011E4
:1017B0000134013D4EE77FEA645C18BF7FEA655C57
:1017C00029D094EA050F08BF90EA020F05D054EA29
:1017D000000C04BF1946104630BD91EA030F1EBF2E
:1017E0000021002030BD5FEA545C05D14000494132
:1017F00028BF41F0004130BD14F580043CBF01F525
:10180000801130BD01F0004545F0FE4141F470010A
:101810004FF0000030BD7FEA645C1ABF19461046E5
:101820007FEA655C1CBF0B46024650EA013406BFE6
:1018300052EA033591EA030F41F4002130BD00BFA5
:1018400090F0000F04BF0021704730B54FF4806462
:1018500004F132044FF000054FF0000150E700BFE3
:1018600090F0000F04BF0021704730B54FF4806442
:1018700004F1320410F0004548BF40424FF000012F
:101880003EE700BF42004FEAE2014FEA31014FEA72
:1018900002701FBF12F07F4393F07F4F81F06051C1
:1018A000704792F0000F14BF93F07F4F704730B530
:1018B0004FF4607401F0004521F0004120E700BFC3
:1018C00050EA010208BF704730B54FF000050AE04A
:1018D00050EA010208BF704730B511F0004502D54B
:1018E000404261EB41014FF4806404F132045FEA4D
:1018F000915C3FF4DCAE4FF003025FEADC0C18BFF2
:1019000003325FEADC0C18BF033202EBDC02C2F1E7
:10191000200300FA03FC20FA02F001FA03FE40EA79
:101920000E0021FA02F11444C1E600BF70B54FF079
:10193000FF0C4CF4E06C1CEA11541DBF1CEA13555B
:1019400094EA0C0F95EA0C0F00F0DEF82C4481EAC3
:10195000030621EA4C5123EA4C5350EA013518BFE3
:1019600052EA033541F4801143F4801338D0A0FBD0
:1019700002CE4FF00005E1FB02E506F00042E0FB7D
:1019800003E54FF00006E1FB03569CF0000F18BF83
:101990004EF0010EA4F1FF04B6F5007F64F540742B
:1019A00004D25FEA4E0E6D4146EB060642EAC621BE
:1019B00041EA55514FEAC52040EA5E504FEACE2E2B
:1019C000B4F1FD0C88BFBCF5E06F1ED8BEF1004F2E
:1019D00008BF5FEA500E50F1000041EB045170BDAA
:1019E00006F0004646EA010140EA020081EA0301EE
:1019F000B4EB5C04C2BFD4EB0C0541EA045170BDEA
:101A000041F480114FF0000E013C00F3AB8014F163
:101A1000360FDEBF002001F0004170BDC4F10004AC
:101A2000203C35DA0C341BDC04F11404C4F120052D
:101A300000FA05F320FA04F001FA05F240EA020088
:101A400001F0004221F0004110EBD37021FA04F6BE
:101A500042EB06015EEA430E08BF20EAD37070BD78
:101A6000C4F10C04C4F1200500FA04F320FA05F0D7
:101A700001FA04F240EA020001F0004110EBD370D9
:101A800041F100015EEA430E08BF20EAD37070BD49
:101A9000C4F1200500FA05F24EEA020E20FA04F322
:101AA00001FA05F243EA020321FA04F001F00041D1
:101AB00021FA04F220EA020000EBD3705EEA430E42
:101AC00008BF20EAD37070BD94F0000F0FD101F071
:101AD0000046400041EB010111F4801F08BF013CAA
:101AE000F7D041EA060195F0000F18BF704703F0E8
:101AF0000046520043EB030313F4801F08BF013D6F
:101B0000F7D043EA0603704794EA0C0F0CEA13552A
:101B100018BF95EA0C0F0CD050EA410618BF52EAE4
:101B20004306D1D181EA030101F000414FF00000EA
:101B300070BD50EA410606BF1046194652EA4306F8
:101B400019D094EA0C0F02D150EA013613D195EA6C
:101B50000C0F05D152EA03361CBF104619460AD1B4
:101B600081EA030101F0004141F0FE4141F47001BE
:101B70004FF0000070BD41F0FE4141F4780170BDAE
:101B800070B54FF0FF0C4CF4E06C1CEA11541DBF13
:101B90001CEA135594EA0C0F95EA0C0F00F0A7F815
:101BA000A4EB050481EA030E52EA03354FEA013142
:101BB00000F088804FEA03334FF0805545EA131355
:101BC00043EA12634FEA022245EA111545EA10651D
:101BD0004FEA00260EF000419D4208BF964244F1B4
:101BE000FD0404F5407402D25B084FEA3202B61AD3
:101BF00065EB03055B084FEA32024FF480104FF4A7
:101C0000002CB6EB020E75EB030E22BFB61A75461A
:101C100040EA0C005B084FEA3202B6EB020E75EBAD
:101C2000030E22BFB61A754640EA5C005B084FEA15
:101C30003202B6EB020E75EB030E22BFB61A7546E2
:101C400040EA9C005B084FEA3202B6EB020E75EBED
:101C5000030E22BFB61A754640EADC0055EA060EAE
:101C600018D04FEA051545EA16754FEA06164FEAF1
:101C7000C30343EA52734FEAC2025FEA1C1CC0D19D
:101C800011F4801F0BD141EA00014FF000004FF02A
:101C9000004CB6E711F4801F04BF01430020B4F1EB
:101CA000FD0C88BFBCF5E06F3FF6AFAEB5EB030CA3
:101CB00004BFB6EB020C5FEA500C50F1000041EBA0
:101CC000045170BD0EF0004E4EEA113114EB5C046D
:101CD000C2BFD4EB0C0541EA045170BD41F4801140
:101CE0004FF0000E013C90E645EA060E8DE60CEA48
:101CF000135594EA0C0F08BF95EA0C0F3FF43BAF65
:101D000094EA0C0F0AD150EA01347FF434AF95EA1B
:101D10000C0F7FF425AF104619462CE795EA0C0FFF
:101D200006D152EA03353FF4FDAE1046194622E7CC
:101D300050EA410618BF52EA43067FF4C5AE50EAA6
:101D400041047FF40DAF52EA43057FF4EBAE12E796
:101D50004FF0FF3C06E000BF4FF0010C02E000BF77
:101D60004FF0010C4DF804CD4FEA410C7FEA6C5C5A
:101D70004FEA430C18BF7FEA6C5C1BD001B050EAFD
:101D8000410C0CBF52EA430C91EA030F02BF90EAE8
:101D9000020F0020704710F1000F91EA030F58BFA7
:101DA000994208BF90422CBFD8176FEAE37040F009
:101DB000010070474FEA410C7FEA6C5C02D150EAA7
:101DC000013C07D14FEA430C7FEA6C5CD6D152EA62
:101DD000033CD3D05DF8040B704700BF8446104627
:101DE00062468C461946634600E000BF01B5FFF726
:101DF000B7FF002848BF10F1000F01BD4DF808EDF6
:101E0000FFF7F4FF0CBF012000205DF808FB00BFC6
:101E10004DF808EDFFF7EAFF34BF012000205DF820
:101E200008FB00BF4DF808EDFFF7E0FF94BF01206D
:101E300000205DF808FB00BF4DF808EDFFF7CEFF6E
:101E400094BF012000205DF808FB00BF4DF808EDAD
:101E5000FFF7C4FF34BF012000205DF808FB00BF7E
:101E60004FEA410212F5001215D211D56FF47873C2
:101E7000B3EB625212D94FEAC12343F0004343EA65
:101E8000505311F0004F23FA02F018BF4042704740
:101E90004FF00000704750EA013005D111F00040CA
:101EA00008BF6FF0004070474FF00000704700BF60
:101EB000931E222B10D80A2A10B506D000230C46F8
:101EC000194400F099FA204610BD0028F6DA2D23B7
:101ED0000B7040420123F2E700200870704700BFFA
:101EE000FFF7E6BF70B411F0FF0434D085070FD0C0
:101EF0000378002B5AD09C422BD0431C05E013F8EA
:101F0000012B002A4FD0944223D09A071846F6D1CD
:101F10000E0206F47F462643036846EA064601E0C1
:101F200050F8043F86EA0305A5F10132A3F101311F
:101F300022EA050221EA0303134313F0803FEFD0A6
:101F4000037823B932E010F8013F002B2ED09C42D9
:101F5000F9D170BC704784070BD00378002BF8D000
:101F6000431C03E002780133002AF2D09907184697
:101F7000F8D10268A2F1013323EA020313F0803F93
:101F800008D150F8042FA2F1013323EA020313F021
:101F9000803FF6D00378002BDBD010F8013F002BF8
:101FA000FBD170BC7047104670BC7047184670BCBF
:101FB000704700BF000000000000000000000000AB
:101FC000A2EB0300704700BF02780B78012A28BFFC
:101FD0009A42F5D16DE9044540EA0104CDE9026772
:101FE0006FF0000C4FEA447212B380EA010414F05F
:101FF000070F6AD100F0070420F0070004F0030582
:1020000021F007014FEAC505F0E8042314F0040F9E
:10201000F1E804670CFA05F462EA040266EA0406D1
:102020000AD063EA0403624667EA0407664603E0EF
:10203000F0E80423F1E8046782FA4CF582EA06042A
:10204000A4FA8CF46CBB83FA4CF583EA0705A5FA75
:102050008CF595B950E9022351E9026782FA4CF5F3
:1020600082EA0604A4FA8CF483FA4CF583EA0705A5
:10207000A5FA8CF52543DBD09CB92DBAB5FA85F4C9
:1020800024F0070427FA04F1DDE9026723FA04F3D8
:1020900003F0FF0001F0FF01FDE80445A0EB0100A3
:1020A000704724BAB4FA84F424F0070426FA04F141
:1020B000DDE9026722FA04F202F0FF0001F0FF01FD
:1020C000FDE80445A0EB0100704714F0030F3CD17C
:1020D00010F0030428D150F8082B51F8083B82FA7D
:1020E0004CF582EA0305A5FA8CF55DB950F8042C8D
:1020F00051F8043C82FA4CF582EA0305A5FA8CF506
:10210000002DE8D02DBAB5FA85F424F0070423FA9F
:1021100004F122FA04F202F0FF0001F0FF01FDE8F1
:102120000445A0EB010070474FEAC40420F003000F
:1021300050F8082B21F0030151F8083B0CFA04F485
:1021400062EA040263EA0403C9E710F003041AD048
:10215000A1EB040120F00300E40750F8042B06D0A3
:102160000FD28B785FFAA2F4E41A06D12BB1CB78A8
:102170005FFAB2F4E41A00D11BB920465DF8104BA7
:10218000704701F1040150F8042BCC0721F0030142
:1021900051F8043B48D824D222F07F4482FA4CF50F
:1021A00094EA1325A5FA8CF50AD165B951F8043BD8
:1021B00084EA0204B4EB036F0ED150F8042BEBE772
:1021C0004FEA132355E035F07F454DD10878FDE8FF
:1021D0000445C0F1000070474FEA126203F0FF03AC
:1021E00047E002EA1C4482FA4CF594EA1345A5FA4A
:1021F0008CF50AD165B951F8043B84EA0204B4EBCA
:10220000034F0CD150F8042BEBE74FEA134330E0B7
:1022100015EA1C4528D10B884FEA124229E04FEA03
:10222000124203EA1C4324E002F0FF0482FA4CF558
:1022300094EA1365A5FA8CF50AD165B951F8043B07
:1022400084EA0204B4EB032F09D150F8042BEBE726
:102250004FEA13630DE015F0FF0F05D10B684FEA4D
:10226000122223F07F4304E04FF00000FDE8044514
:10227000704712BA1BBA82FA4CF482EA0304A4FA39
:102280008CF5B5FA85F402FA04F203FA04F34FEA86
:102290001260FDE80445A0EB1360704700000000E9
:1022A000000000000000000000000000000000002E
:1022B000000000000000000000000000000000001E
:1022C00090F800F06DE9024520F007016FF0000C76
:1022D00010F0070491F820F040F049804FF000041E
:1022E0006FF00700D1E9002391F840F000F10800F9
:1022F00082FA4CF2A4FA8CF283FA4CF3A2FA8CF331
:102300004BBBD1E9022382FA4CF200F10800A4FA97
:102310008CF283FA4CF3A2FA8CF3E3B9D1E90423EB
:1023200082FA4CF200F10800A4FA8CF283FA4CF322
:10233000A2FA8CF37BB9D1E9062301F1200182FADC
:102340004CF200F10800A4FA8CF283FA4CF3A2FAE2
:102350008CF3002BC6D0002A04BF04301A4612BAF0
:10236000B2FA82F2FDE8024500EBD2007047D1E9F3
:10237000002304F00305C4F100004FEAC50514F082
:10238000040F91F840F00CFA05F562EA05021CBF53
:1023900063EA050362464FF00004A9E7830730B4FF
:1023A00025D10468A4F1013323EA040313F0803F2C
:1023B000034608D153F8045FA5F1013424EA05046B
:1023C00014F0803FF6D01C781CB113F8014F002C9C
:1023D000FBD19D1805E011F8014B03F8014B24B126
:1023E0003AB19D4202F1FF32F5D130BC704703464D
:1023F000E9E71A70F5E700BFF0B5DFF878E01646B8
:1024000004460F46BEE80F008BB06D460FC5BEE810
:102410000F000FC59EE80300B31E45F8040B222BE6
:10242000297022D87D1E2846002200E01A46B4FBFF
:10243000F6F10AAB06FB114423440C4613F8283C82
:1024400000F8013F531C0029F0D1F954BB184AB1E0
:10245000197815F8010F29700134111B8C4203F80B
:102460000109F5DB38460BB0F0BD002038700BB029
:10247000F0BD00BFA42600084572726F72210000F3
:102480005A6120646C7567692070616B696574219D
:10249000000000002053756D61206B6F6E74726FC9
:1024A0006C6E61207A676F646E6120646C61206B72
:1024B0006F6D656E64793A200000000073756D6180
:1024C000206B6F6E74726F6C6E61206E6965207A1E
:1024D000676F646E6121000020426C65646E792034
:1024E000666F726D6174206B6F6D756E696B617470
:1024F000753A200048656C6C6F20576F726C6421D0
:1025000000000000526F6C65746120726F7A776909
:102510006E69657461210000526F6C657461207A88
:1025200077696E6965746121000000004C69637A07
:102530006E696B2070656C6E79210000537769615C
:10254000746C6F20706164616C6F20777973746153
:1025500072637A616A61636F210000005A77696A69
:10256000616D20726F6C65746521000050727A6530
:102570006B726F637A6F6E6F206D617267696E65E3
:102580007320626C65647521000000004E6965204F
:102590007275737A616D20726F6C657479210000B9
:1025A0004272616B2073776961746C612100000075
:1025B000526F7A77696A616D20726F6C65746521FC
:1025C00000000000726F7A77696E000050657269D2
:1025D0006F643A20000000005A6170616C616D20E8
:1025E00064696F6465203134210000007A77696E78
:1025F000000000005A6170616C616D2064696F6455
:1026000065203135210000006175746F0000000005
:1026100050727A6563686F647A6520772074727986
:1026200062206175746F6D617479637A6E792100CF
:102630005A6170616C616D2064696F647920313416
:10264000206920313521000073746F700000000094
:1026500054696D657220646F6C69637A796C20646B
:102660006F3A2000506572696F6420706F207A6D38
:1026700069616E69653A20004761737A6520646913
:102680006F64792031342069203135210000000049
:102690005A6174727A796D756A6520726F6C6574AF
:1026A00065210000303132333435363738396162D4
:1026B000636465666768696A6B6C6D6E6F70717272
:0C26C000737475767778797A000000005A
:1026CC0000000000010203040102030406070809CC
:0400000508000000EF
:00000001FF
